{
  "_format": "hh-sol-artifact-1",
  "contractName": "SimpleDEXX",
  "sourceName": "contracts/SimpleDexx.sol",
  "abi": [
    {
      "inputs": [
        {
          "internalType": "address",
          "name": "_tokenA",
          "type": "address"
        },
        {
          "internalType": "address",
          "name": "_tokenB",
          "type": "address"
        }
      ],
      "stateMutability": "nonpayable",
      "type": "constructor"
    },
    {
      "inputs": [
        {
          "internalType": "address",
          "name": "owner",
          "type": "address"
        }
      ],
      "name": "OwnableInvalidOwner",
      "type": "error"
    },
    {
      "inputs": [
        {
          "internalType": "address",
          "name": "account",
          "type": "address"
        }
      ],
      "name": "OwnableUnauthorizedAccount",
      "type": "error"
    },
    {
      "anonymous": false,
      "inputs": [
        {
          "indexed": false,
          "internalType": "uint256",
          "name": "amountA",
          "type": "uint256"
        },
        {
          "indexed": false,
          "internalType": "uint256",
          "name": "amountB",
          "type": "uint256"
        }
      ],
      "name": "LiquidityAdded",
      "type": "event"
    },
    {
      "anonymous": false,
      "inputs": [
        {
          "indexed": false,
          "internalType": "uint256",
          "name": "amountA",
          "type": "uint256"
        },
        {
          "indexed": false,
          "internalType": "uint256",
          "name": "amountB",
          "type": "uint256"
        }
      ],
      "name": "LiquidityRemoved",
      "type": "event"
    },
    {
      "anonymous": false,
      "inputs": [
        {
          "indexed": true,
          "internalType": "address",
          "name": "previousOwner",
          "type": "address"
        },
        {
          "indexed": true,
          "internalType": "address",
          "name": "newOwner",
          "type": "address"
        }
      ],
      "name": "OwnershipTransferred",
      "type": "event"
    },
    {
      "anonymous": false,
      "inputs": [
        {
          "indexed": true,
          "internalType": "address",
          "name": "user",
          "type": "address"
        },
        {
          "indexed": false,
          "internalType": "uint256",
          "name": "amountIn",
          "type": "uint256"
        },
        {
          "indexed": false,
          "internalType": "uint256",
          "name": "amountOut",
          "type": "uint256"
        },
        {
          "indexed": true,
          "internalType": "bool",
          "name": "isSwapAforB",
          "type": "bool"
        }
      ],
      "name": "Swapped",
      "type": "event"
    },
    {
      "inputs": [
        {
          "internalType": "uint256",
          "name": "amountA",
          "type": "uint256"
        },
        {
          "internalType": "uint256",
          "name": "amountB",
          "type": "uint256"
        }
      ],
      "name": "addLiquidity",
      "outputs": [],
      "stateMutability": "nonpayable",
      "type": "function"
    },
    {
      "inputs": [
        {
          "internalType": "uint256",
          "name": "amountIn",
          "type": "uint256"
        },
        {
          "internalType": "uint256",
          "name": "reserveIn",
          "type": "uint256"
        },
        {
          "internalType": "uint256",
          "name": "reserveOut",
          "type": "uint256"
        }
      ],
      "name": "getAmountOut",
      "outputs": [
        {
          "internalType": "uint256",
          "name": "",
          "type": "uint256"
        }
      ],
      "stateMutability": "pure",
      "type": "function"
    },
    {
      "inputs": [
        {
          "internalType": "address",
          "name": "_token",
          "type": "address"
        }
      ],
      "name": "getPrice",
      "outputs": [
        {
          "internalType": "uint256",
          "name": "",
          "type": "uint256"
        }
      ],
      "stateMutability": "view",
      "type": "function"
    },
    {
      "inputs": [],
      "name": "owner",
      "outputs": [
        {
          "internalType": "address",
          "name": "",
          "type": "address"
        }
      ],
      "stateMutability": "view",
      "type": "function"
    },
    {
      "inputs": [
        {
          "internalType": "uint256",
          "name": "amountA",
          "type": "uint256"
        },
        {
          "internalType": "uint256",
          "name": "amountB",
          "type": "uint256"
        }
      ],
      "name": "removeLiquidity",
      "outputs": [],
      "stateMutability": "nonpayable",
      "type": "function"
    },
    {
      "inputs": [],
      "name": "renounceOwnership",
      "outputs": [],
      "stateMutability": "nonpayable",
      "type": "function"
    },
    {
      "inputs": [],
      "name": "reserveA",
      "outputs": [
        {
          "internalType": "uint256",
          "name": "",
          "type": "uint256"
        }
      ],
      "stateMutability": "view",
      "type": "function"
    },
    {
      "inputs": [],
      "name": "reserveB",
      "outputs": [
        {
          "internalType": "uint256",
          "name": "",
          "type": "uint256"
        }
      ],
      "stateMutability": "view",
      "type": "function"
    },
    {
      "inputs": [
        {
          "internalType": "uint256",
          "name": "amountAIn",
          "type": "uint256"
        }
      ],
      "name": "swapAforB",
      "outputs": [],
      "stateMutability": "nonpayable",
      "type": "function"
    },
    {
      "inputs": [
        {
          "internalType": "uint256",
          "name": "amountBIn",
          "type": "uint256"
        }
      ],
      "name": "swapBforA",
      "outputs": [],
      "stateMutability": "nonpayable",
      "type": "function"
    },
    {
      "inputs": [],
      "name": "tokenA",
      "outputs": [
        {
          "internalType": "contract ERC20",
          "name": "",
          "type": "address"
        }
      ],
      "stateMutability": "view",
      "type": "function"
    },
    {
      "inputs": [],
      "name": "tokenB",
      "outputs": [
        {
          "internalType": "contract ERC20",
          "name": "",
          "type": "address"
        }
      ],
      "stateMutability": "view",
      "type": "function"
    },
    {
      "inputs": [
        {
          "internalType": "address",
          "name": "newOwner",
          "type": "address"
        }
      ],
      "name": "transferOwnership",
      "outputs": [],
      "stateMutability": "nonpayable",
      "type": "function"
    }
  ],
  "bytecode": "0x60806040523480156200001157600080fd5b5060405162001d8538038062001d85833981810160405281019062000037919062000277565b33600073ffffffffffffffffffffffffffffffffffffffff168173ffffffffffffffffffffffffffffffffffffffff1603620000ad5760006040517f1e4fbdf7000000000000000000000000000000000000000000000000000000008152600401620000a49190620002cf565b60405180910390fd5b620000be816200014960201b60201c565b5081600160006101000a81548173ffffffffffffffffffffffffffffffffffffffff021916908373ffffffffffffffffffffffffffffffffffffffff16021790555080600260006101000a81548173ffffffffffffffffffffffffffffffffffffffff021916908373ffffffffffffffffffffffffffffffffffffffff1602179055505050620002ec565b60008060009054906101000a900473ffffffffffffffffffffffffffffffffffffffff169050816000806101000a81548173ffffffffffffffffffffffffffffffffffffffff021916908373ffffffffffffffffffffffffffffffffffffffff1602179055508173ffffffffffffffffffffffffffffffffffffffff168173ffffffffffffffffffffffffffffffffffffffff167f8be0079c531659141344cd1fd0a4f28419497f9722a3daafe3b4186f6b6457e060405160405180910390a35050565b600080fd5b600073ffffffffffffffffffffffffffffffffffffffff82169050919050565b60006200023f8262000212565b9050919050565b620002518162000232565b81146200025d57600080fd5b50565b600081519050620002718162000246565b92915050565b600080604083850312156200029157620002906200020d565b5b6000620002a18582860162000260565b9250506020620002b48582860162000260565b9150509250929050565b620002c98162000232565b82525050565b6000602082019050620002e66000830184620002be565b92915050565b611a8980620002fc6000396000f3fe608060405234801561001057600080fd5b50600436106100cf5760003560e01c80638014a7aa1161008c5780639d7de6b3116100665780639d7de6b3146101ee578063dc5fa6c51461020a578063e4f1f70a14610228578063f2fde38b14610244576100cf565b80638014a7aa146101985780638da5cb5b146101b45780639cd441da146101d2576100cf565b8063054d50d4146100d45780630fc63d101461010457806319e36f3b1461012257806341976e09146101405780635f64b55b14610170578063715018a61461018e575b600080fd5b6100ee60048036038101906100e99190611338565b610260565b6040516100fb919061139a565b60405180910390f35b61010c61031e565b6040516101199190611434565b60405180910390f35b61012a610344565b604051610137919061139a565b60405180910390f35b61015a6004803603810190610155919061148d565b61034a565b604051610167919061139a565b60405180910390f35b610178610740565b6040516101859190611434565b60405180910390f35b610196610766565b005b6101b260048036038101906101ad91906114ba565b61077a565b005b6101bc6109d7565b6040516101c991906114f6565b60405180910390f35b6101ec60048036038101906101e79190611511565b610a00565b005b61020860048036038101906102039190611511565b610c39565b005b610212610ec1565b60405161021f919061139a565b60405180910390f35b610242600480360381019061023d91906114ba565b610ec7565b005b61025e6004803603810190610259919061148d565b611124565b005b60008084116102a4576040517f08c379a000000000000000000000000000000000000000000000000000000000815260040161029b906115ae565b60405180910390fd5b6000831180156102b45750600082115b6102f3576040517f08c379a00000000000000000000000000000000000000000000000000000000081526004016102ea9061161a565b60405180910390fd5b83836102ff9190611669565b828561030b919061169d565b610315919061170e565b90509392505050565b600160009054906101000a900473ffffffffffffffffffffffffffffffffffffffff1681565b60045481565b6000600160009054906101000a900473ffffffffffffffffffffffffffffffffffffffff1673ffffffffffffffffffffffffffffffffffffffff168273ffffffffffffffffffffffffffffffffffffffff1614806103f55750600260009054906101000a900473ffffffffffffffffffffffffffffffffffffffff1673ffffffffffffffffffffffffffffffffffffffff168273ffffffffffffffffffffffffffffffffffffffff16145b610434576040517f08c379a000000000000000000000000000000000000000000000000000000000815260040161042b9061178b565b60405180910390fd5b600160009054906101000a900473ffffffffffffffffffffffffffffffffffffffff1673ffffffffffffffffffffffffffffffffffffffff168273ffffffffffffffffffffffffffffffffffffffff16146105e357600260009054906101000a900473ffffffffffffffffffffffffffffffffffffffff1673ffffffffffffffffffffffffffffffffffffffff166370a08231306040518263ffffffff1660e01b81526004016104e491906114f6565b602060405180830381865afa158015610501573d6000803e3d6000fd5b505050506040513d601f19601f8201168201806040525081019061052591906117c0565b670de0b6b3a7640000600160009054906101000a900473ffffffffffffffffffffffffffffffffffffffff1673ffffffffffffffffffffffffffffffffffffffff166370a08231306040518263ffffffff1660e01b815260040161058991906114f6565b602060405180830381865afa1580156105a6573d6000803e3d6000fd5b505050506040513d601f19601f820116820180604052508101906105ca91906117c0565b6105d4919061169d565b6105de919061170e565b610739565b600160009054906101000a900473ffffffffffffffffffffffffffffffffffffffff1673ffffffffffffffffffffffffffffffffffffffff166370a08231306040518263ffffffff1660e01b815260040161063e91906114f6565b602060405180830381865afa15801561065b573d6000803e3d6000fd5b505050506040513d601f19601f8201168201806040525081019061067f91906117c0565b670de0b6b3a7640000600260009054906101000a900473ffffffffffffffffffffffffffffffffffffffff1673ffffffffffffffffffffffffffffffffffffffff166370a08231306040518263ffffffff1660e01b81526004016106e391906114f6565b602060405180830381865afa158015610700573d6000803e3d6000fd5b505050506040513d601f19601f8201168201806040525081019061072491906117c0565b61072e919061169d565b610738919061170e565b5b9050919050565b600260009054906101000a900473ffffffffffffffffffffffffffffffffffffffff1681565b61076e6111aa565b6107786000611231565b565b600061078b82600454600354610260565b9050600260009054906101000a900473ffffffffffffffffffffffffffffffffffffffff1673ffffffffffffffffffffffffffffffffffffffff166323b872dd3330856040518463ffffffff1660e01b81526004016107ec939291906117ed565b6020604051808303816000875af115801561080b573d6000803e3d6000fd5b505050506040513d601f19601f8201168201806040525081019061082f919061185c565b61086e576040517f08c379a0000000000000000000000000000000000000000000000000000000008152600401610865906118d5565b60405180910390fd5b600160009054906101000a900473ffffffffffffffffffffffffffffffffffffffff1673ffffffffffffffffffffffffffffffffffffffff1663a9059cbb33836040518363ffffffff1660e01b81526004016108cb9291906118f5565b6020604051808303816000875af11580156108ea573d6000803e3d6000fd5b505050506040513d601f19601f8201168201806040525081019061090e919061185c565b61094d576040517f08c379a00000000000000000000000000000000000000000000000000000000081526004016109449061196a565b60405180910390fd5b816004600082825461095f9190611669565b925050819055508060036000828254610978919061198a565b92505081905550600015153373ffffffffffffffffffffffffffffffffffffffff167f5aa8e665a6e1c6a7d2c5b99a4189b04b54f8c24e567a02d8fb7d4a63f57e8d6b84846040516109cb9291906119be565b60405180910390a35050565b60008060009054906101000a900473ffffffffffffffffffffffffffffffffffffffff16905090565b610a086111aa565b600160009054906101000a900473ffffffffffffffffffffffffffffffffffffffff1673ffffffffffffffffffffffffffffffffffffffff166323b872dd3330856040518463ffffffff1660e01b8152600401610a67939291906117ed565b6020604051808303816000875af1158015610a86573d6000803e3d6000fd5b505050506040513d601f19601f82011682018060405250810190610aaa919061185c565b610ae9576040517f08c379a0000000000000000000000000000000000000000000000000000000008152600401610ae09061196a565b60405180910390fd5b600260009054906101000a900473ffffffffffffffffffffffffffffffffffffffff1673ffffffffffffffffffffffffffffffffffffffff166323b872dd3330846040518463ffffffff1660e01b8152600401610b48939291906117ed565b6020604051808303816000875af1158015610b67573d6000803e3d6000fd5b505050506040513d601f19601f82011682018060405250810190610b8b919061185c565b610bca576040517f08c379a0000000000000000000000000000000000000000000000000000000008152600401610bc1906118d5565b60405180910390fd5b8160036000828254610bdc9190611669565b925050819055508060046000828254610bf59190611669565b925050819055507f38f8a0c92f4c5b0b6877f878cb4c0c8d348a47b76d716c8e78f425043df9515b8282604051610c2d9291906119be565b60405180910390a15050565b610c416111aa565b8160035410158015610c5557508060045410155b610c94576040517f08c379a0000000000000000000000000000000000000000000000000000000008152600401610c8b90611a33565b60405180910390fd5b8160036000828254610ca6919061198a565b925050819055508060046000828254610cbf919061198a565b92505081905550600160009054906101000a900473ffffffffffffffffffffffffffffffffffffffff1673ffffffffffffffffffffffffffffffffffffffff1663a9059cbb33846040518363ffffffff1660e01b8152600401610d239291906118f5565b6020604051808303816000875af1158015610d42573d6000803e3d6000fd5b505050506040513d601f19601f82011682018060405250810190610d66919061185c565b610da5576040517f08c379a0000000000000000000000000000000000000000000000000000000008152600401610d9c9061196a565b60405180910390fd5b600260009054906101000a900473ffffffffffffffffffffffffffffffffffffffff1673ffffffffffffffffffffffffffffffffffffffff1663a9059cbb33836040518363ffffffff1660e01b8152600401610e029291906118f5565b6020604051808303816000875af1158015610e21573d6000803e3d6000fd5b505050506040513d601f19601f82011682018060405250810190610e45919061185c565b610e84576040517f08c379a0000000000000000000000000000000000000000000000000000000008152600401610e7b906118d5565b60405180910390fd5b7f6f0f96292ae0038c04f9b6bab30f185d9ca02c471d0983f563f2a4f674aef1378282604051610eb59291906119be565b60405180910390a15050565b60035481565b6000610ed882600354600454610260565b9050600160009054906101000a900473ffffffffffffffffffffffffffffffffffffffff1673ffffffffffffffffffffffffffffffffffffffff166323b872dd3330856040518463ffffffff1660e01b8152600401610f39939291906117ed565b6020604051808303816000875af1158015610f58573d6000803e3d6000fd5b505050506040513d601f19601f82011682018060405250810190610f7c919061185c565b610fbb576040517f08c379a0000000000000000000000000000000000000000000000000000000008152600401610fb29061196a565b60405180910390fd5b600260009054906101000a900473ffffffffffffffffffffffffffffffffffffffff1673ffffffffffffffffffffffffffffffffffffffff1663a9059cbb33836040518363ffffffff1660e01b81526004016110189291906118f5565b6020604051808303816000875af1158015611037573d6000803e3d6000fd5b505050506040513d601f19601f8201168201806040525081019061105b919061185c565b61109a576040517f08c379a0000000000000000000000000000000000000000000000000000000008152600401611091906118d5565b60405180910390fd5b81600360008282546110ac9190611669565b9250508190555080600460008282546110c5919061198a565b92505081905550600115153373ffffffffffffffffffffffffffffffffffffffff167f5aa8e665a6e1c6a7d2c5b99a4189b04b54f8c24e567a02d8fb7d4a63f57e8d6b84846040516111189291906119be565b60405180910390a35050565b61112c6111aa565b600073ffffffffffffffffffffffffffffffffffffffff168173ffffffffffffffffffffffffffffffffffffffff160361119e5760006040517f1e4fbdf700000000000000000000000000000000000000000000000000000000815260040161119591906114f6565b60405180910390fd5b6111a781611231565b50565b6111b26112f5565b73ffffffffffffffffffffffffffffffffffffffff166111d06109d7565b73ffffffffffffffffffffffffffffffffffffffff161461122f576111f36112f5565b6040517f118cdaa700000000000000000000000000000000000000000000000000000000815260040161122691906114f6565b60405180910390fd5b565b60008060009054906101000a900473ffffffffffffffffffffffffffffffffffffffff169050816000806101000a81548173ffffffffffffffffffffffffffffffffffffffff021916908373ffffffffffffffffffffffffffffffffffffffff1602179055508173ffffffffffffffffffffffffffffffffffffffff168173ffffffffffffffffffffffffffffffffffffffff167f8be0079c531659141344cd1fd0a4f28419497f9722a3daafe3b4186f6b6457e060405160405180910390a35050565b600033905090565b600080fd5b6000819050919050565b61131581611302565b811461132057600080fd5b50565b6000813590506113328161130c565b92915050565b600080600060608486031215611351576113506112fd565b5b600061135f86828701611323565b935050602061137086828701611323565b925050604061138186828701611323565b9150509250925092565b61139481611302565b82525050565b60006020820190506113af600083018461138b565b92915050565b600073ffffffffffffffffffffffffffffffffffffffff82169050919050565b6000819050919050565b60006113fa6113f56113f0846113b5565b6113d5565b6113b5565b9050919050565b600061140c826113df565b9050919050565b600061141e82611401565b9050919050565b61142e81611413565b82525050565b60006020820190506114496000830184611425565b92915050565b600061145a826113b5565b9050919050565b61146a8161144f565b811461147557600080fd5b50565b60008135905061148781611461565b92915050565b6000602082840312156114a3576114a26112fd565b5b60006114b184828501611478565b91505092915050565b6000602082840312156114d0576114cf6112fd565b5b60006114de84828501611323565b91505092915050565b6114f08161144f565b82525050565b600060208201905061150b60008301846114e7565b92915050565b60008060408385031215611528576115276112fd565b5b600061153685828601611323565b925050602061154785828601611323565b9150509250929050565b600082825260208201905092915050565b7f416d6f756e7420696e206d7573742062652067726561746572207468616e2030600082015250565b6000611598602083611551565b91506115a382611562565b602082019050919050565b600060208201905081810360008301526115c78161158b565b9050919050565b7f5265736572766573206d7573742062652067726561746572207468616e203000600082015250565b6000611604601f83611551565b915061160f826115ce565b602082019050919050565b60006020820190508181036000830152611633816115f7565b9050919050565b7f4e487b7100000000000000000000000000000000000000000000000000000000600052601160045260246000fd5b600061167482611302565b915061167f83611302565b92508282019050808211156116975761169661163a565b5b92915050565b60006116a882611302565b91506116b383611302565b92508282026116c181611302565b915082820484148315176116d8576116d761163a565b5b5092915050565b7f4e487b7100000000000000000000000000000000000000000000000000000000600052601260045260246000fd5b600061171982611302565b915061172483611302565b925082611734576117336116df565b5b828204905092915050565b7f496e76616c696420746f6b656e00000000000000000000000000000000000000600082015250565b6000611775600d83611551565b91506117808261173f565b602082019050919050565b600060208201905081810360008301526117a481611768565b9050919050565b6000815190506117ba8161130c565b92915050565b6000602082840312156117d6576117d56112fd565b5b60006117e4848285016117ab565b91505092915050565b600060608201905061180260008301866114e7565b61180f60208301856114e7565b61181c604083018461138b565b949350505050565b60008115159050919050565b61183981611824565b811461184457600080fd5b50565b60008151905061185681611830565b92915050565b600060208284031215611872576118716112fd565b5b600061188084828501611847565b91505092915050565b7f5472616e73666572206f6620546f6b656e42206661696c656400000000000000600082015250565b60006118bf601983611551565b91506118ca82611889565b602082019050919050565b600060208201905081810360008301526118ee816118b2565b9050919050565b600060408201905061190a60008301856114e7565b611917602083018461138b565b9392505050565b7f5472616e73666572206f6620546f6b656e41206661696c656400000000000000600082015250565b6000611954601983611551565b915061195f8261191e565b602082019050919050565b6000602082019050818103600083015261198381611947565b9050919050565b600061199582611302565b91506119a083611302565b92508282039050818111156119b8576119b761163a565b5b92915050565b60006040820190506119d3600083018561138b565b6119e0602083018461138b565b9392505050565b7f496e73756666696369656e74206c697175696469747900000000000000000000600082015250565b6000611a1d601683611551565b9150611a28826119e7565b602082019050919050565b60006020820190508181036000830152611a4c81611a10565b905091905056fea2646970667358221220194c7c7f4ef4f035978566a05105d89086b983ae487772d329a93465700b4f6b64736f6c63430008180033",
  "linkReferences": {},
  "deployedLinkReferences": {}
}