{
  "_format": "hh-sol-artifact-1",
  "contractName": "SimpleDEX",
  "sourceName": "contracts/SimpleDex.sol",
  "abi": [
    {
      "inputs": [
        {
          "internalType": "address",
          "name": "_tokenA",
          "type": "address"
        },
        {
          "internalType": "address",
          "name": "_tokenB",
          "type": "address"
        }
      ],
      "stateMutability": "nonpayable",
      "type": "constructor"
    },
    {
      "inputs": [
        {
          "internalType": "address",
          "name": "owner",
          "type": "address"
        }
      ],
      "name": "OwnableInvalidOwner",
      "type": "error"
    },
    {
      "inputs": [
        {
          "internalType": "address",
          "name": "account",
          "type": "address"
        }
      ],
      "name": "OwnableUnauthorizedAccount",
      "type": "error"
    },
    {
      "anonymous": false,
      "inputs": [
        {
          "indexed": false,
          "internalType": "uint256",
          "name": "amountA",
          "type": "uint256"
        },
        {
          "indexed": false,
          "internalType": "uint256",
          "name": "amountB",
          "type": "uint256"
        }
      ],
      "name": "LiquidityAdded",
      "type": "event"
    },
    {
      "anonymous": false,
      "inputs": [
        {
          "indexed": false,
          "internalType": "uint256",
          "name": "amountA",
          "type": "uint256"
        },
        {
          "indexed": false,
          "internalType": "uint256",
          "name": "amountB",
          "type": "uint256"
        }
      ],
      "name": "LiquidityRemoved",
      "type": "event"
    },
    {
      "anonymous": false,
      "inputs": [
        {
          "indexed": true,
          "internalType": "address",
          "name": "previousOwner",
          "type": "address"
        },
        {
          "indexed": true,
          "internalType": "address",
          "name": "newOwner",
          "type": "address"
        }
      ],
      "name": "OwnershipTransferred",
      "type": "event"
    },
    {
      "anonymous": false,
      "inputs": [
        {
          "indexed": true,
          "internalType": "address",
          "name": "user",
          "type": "address"
        },
        {
          "indexed": false,
          "internalType": "uint256",
          "name": "amountIn",
          "type": "uint256"
        },
        {
          "indexed": false,
          "internalType": "uint256",
          "name": "amountOut",
          "type": "uint256"
        },
        {
          "indexed": true,
          "internalType": "bool",
          "name": "isSwapAforB",
          "type": "bool"
        }
      ],
      "name": "Swapped",
      "type": "event"
    },
    {
      "inputs": [
        {
          "internalType": "uint256",
          "name": "amountA",
          "type": "uint256"
        },
        {
          "internalType": "uint256",
          "name": "amountB",
          "type": "uint256"
        }
      ],
      "name": "addLiquidity",
      "outputs": [],
      "stateMutability": "nonpayable",
      "type": "function"
    },
    {
      "inputs": [
        {
          "internalType": "uint256",
          "name": "amountIn",
          "type": "uint256"
        },
        {
          "internalType": "uint256",
          "name": "reserveIn",
          "type": "uint256"
        },
        {
          "internalType": "uint256",
          "name": "reserveOut",
          "type": "uint256"
        }
      ],
      "name": "getAmountOut",
      "outputs": [
        {
          "internalType": "uint256",
          "name": "",
          "type": "uint256"
        }
      ],
      "stateMutability": "pure",
      "type": "function"
    },
    {
      "inputs": [
        {
          "internalType": "address",
          "name": "_token",
          "type": "address"
        }
      ],
      "name": "getPrice",
      "outputs": [
        {
          "internalType": "uint256",
          "name": "",
          "type": "uint256"
        }
      ],
      "stateMutability": "view",
      "type": "function"
    },
    {
      "inputs": [],
      "name": "owner",
      "outputs": [
        {
          "internalType": "address",
          "name": "",
          "type": "address"
        }
      ],
      "stateMutability": "view",
      "type": "function"
    },
    {
      "inputs": [
        {
          "internalType": "uint256",
          "name": "amountA",
          "type": "uint256"
        },
        {
          "internalType": "uint256",
          "name": "amountB",
          "type": "uint256"
        }
      ],
      "name": "removeLiquidity",
      "outputs": [],
      "stateMutability": "nonpayable",
      "type": "function"
    },
    {
      "inputs": [],
      "name": "renounceOwnership",
      "outputs": [],
      "stateMutability": "nonpayable",
      "type": "function"
    },
    {
      "inputs": [],
      "name": "reserveA",
      "outputs": [
        {
          "internalType": "uint256",
          "name": "",
          "type": "uint256"
        }
      ],
      "stateMutability": "view",
      "type": "function"
    },
    {
      "inputs": [],
      "name": "reserveB",
      "outputs": [
        {
          "internalType": "uint256",
          "name": "",
          "type": "uint256"
        }
      ],
      "stateMutability": "view",
      "type": "function"
    },
    {
      "inputs": [
        {
          "internalType": "uint256",
          "name": "amountAIn",
          "type": "uint256"
        }
      ],
      "name": "swapAforB",
      "outputs": [],
      "stateMutability": "nonpayable",
      "type": "function"
    },
    {
      "inputs": [
        {
          "internalType": "uint256",
          "name": "amountBIn",
          "type": "uint256"
        }
      ],
      "name": "swapBforA",
      "outputs": [],
      "stateMutability": "nonpayable",
      "type": "function"
    },
    {
      "inputs": [],
      "name": "tokenA",
      "outputs": [
        {
          "internalType": "contract ERC20",
          "name": "",
          "type": "address"
        }
      ],
      "stateMutability": "view",
      "type": "function"
    },
    {
      "inputs": [],
      "name": "tokenB",
      "outputs": [
        {
          "internalType": "contract ERC20",
          "name": "",
          "type": "address"
        }
      ],
      "stateMutability": "view",
      "type": "function"
    },
    {
      "inputs": [
        {
          "internalType": "address",
          "name": "newOwner",
          "type": "address"
        }
      ],
      "name": "transferOwnership",
      "outputs": [],
      "stateMutability": "nonpayable",
      "type": "function"
    }
  ],
  "bytecode": "0x60806040523480156200001157600080fd5b5060405162001afa38038062001afa833981810160405281019062000037919062000277565b33600073ffffffffffffffffffffffffffffffffffffffff168173ffffffffffffffffffffffffffffffffffffffff1603620000ad5760006040517f1e4fbdf7000000000000000000000000000000000000000000000000000000008152600401620000a49190620002cf565b60405180910390fd5b620000be816200014960201b60201c565b5081600160006101000a81548173ffffffffffffffffffffffffffffffffffffffff021916908373ffffffffffffffffffffffffffffffffffffffff16021790555080600260006101000a81548173ffffffffffffffffffffffffffffffffffffffff021916908373ffffffffffffffffffffffffffffffffffffffff1602179055505050620002ec565b60008060009054906101000a900473ffffffffffffffffffffffffffffffffffffffff169050816000806101000a81548173ffffffffffffffffffffffffffffffffffffffff021916908373ffffffffffffffffffffffffffffffffffffffff1602179055508173ffffffffffffffffffffffffffffffffffffffff168173ffffffffffffffffffffffffffffffffffffffff167f8be0079c531659141344cd1fd0a4f28419497f9722a3daafe3b4186f6b6457e060405160405180910390a35050565b600080fd5b600073ffffffffffffffffffffffffffffffffffffffff82169050919050565b60006200023f8262000212565b9050919050565b620002518162000232565b81146200025d57600080fd5b50565b600081519050620002718162000246565b92915050565b600080604083850312156200029157620002906200020d565b5b6000620002a18582860162000260565b9250506020620002b48582860162000260565b9150509250929050565b620002c98162000232565b82525050565b6000602082019050620002e66000830184620002be565b92915050565b6117fe80620002fc6000396000f3fe608060405234801561001057600080fd5b50600436106100cf5760003560e01c80638014a7aa1161008c5780639d7de6b3116100665780639d7de6b3146101ee578063dc5fa6c51461020a578063e4f1f70a14610228578063f2fde38b14610244576100cf565b80638014a7aa146101985780638da5cb5b146101b45780639cd441da146101d2576100cf565b8063054d50d4146100d45780630fc63d101461010457806319e36f3b1461012257806341976e09146101405780635f64b55b14610170578063715018a61461018e575b600080fd5b6100ee60048036038101906100e991906110ef565b610260565b6040516100fb9190611151565b60405180910390f35b61010c61031e565b60405161011991906111eb565b60405180910390f35b61012a610344565b6040516101379190611151565b60405180910390f35b61015a60048036038101906101559190611244565b61034a565b6040516101679190611151565b60405180910390f35b6101786104f7565b60405161018591906111eb565b60405180910390f35b61019661051d565b005b6101b260048036038101906101ad9190611271565b610531565b005b6101bc61078e565b6040516101c991906112ad565b60405180910390f35b6101ec60048036038101906101e791906112c8565b6107b7565b005b610208600480360381019061020391906112c8565b6109f0565b005b610212610c78565b60405161021f9190611151565b60405180910390f35b610242600480360381019061023d9190611271565b610c7e565b005b61025e60048036038101906102599190611244565b610edb565b005b60008084116102a4576040517f08c379a000000000000000000000000000000000000000000000000000000000815260040161029b90611365565b60405180910390fd5b6000831180156102b45750600082115b6102f3576040517f08c379a00000000000000000000000000000000000000000000000000000000081526004016102ea906113d1565b60405180910390fd5b83836102ff9190611420565b828561030b9190611454565b61031591906114c5565b90509392505050565b600160009054906101000a900473ffffffffffffffffffffffffffffffffffffffff1681565b60045481565b6000600160009054906101000a900473ffffffffffffffffffffffffffffffffffffffff1673ffffffffffffffffffffffffffffffffffffffff168273ffffffffffffffffffffffffffffffffffffffff1614806103f55750600260009054906101000a900473ffffffffffffffffffffffffffffffffffffffff1673ffffffffffffffffffffffffffffffffffffffff168273ffffffffffffffffffffffffffffffffffffffff16145b610434576040517f08c379a000000000000000000000000000000000000000000000000000000000815260040161042b90611542565b60405180910390fd5b6000600160009054906101000a900473ffffffffffffffffffffffffffffffffffffffff1673ffffffffffffffffffffffffffffffffffffffff168373ffffffffffffffffffffffffffffffffffffffff16036104b557600354670de0b6b3a76400006004546104a49190611454565b6104ae91906114c5565b90506104db565b600454670de0b6b3a76400006003546104ce9190611454565b6104d891906114c5565b90505b670de0b6b3a7640000816104ef91906114c5565b915050919050565b600260009054906101000a900473ffffffffffffffffffffffffffffffffffffffff1681565b610525610f61565b61052f6000610fe8565b565b600061054282600454600354610260565b9050600260009054906101000a900473ffffffffffffffffffffffffffffffffffffffff1673ffffffffffffffffffffffffffffffffffffffff166323b872dd3330856040518463ffffffff1660e01b81526004016105a393929190611562565b6020604051808303816000875af11580156105c2573d6000803e3d6000fd5b505050506040513d601f19601f820116820180604052508101906105e691906115d1565b610625576040517f08c379a000000000000000000000000000000000000000000000000000000000815260040161061c9061164a565b60405180910390fd5b600160009054906101000a900473ffffffffffffffffffffffffffffffffffffffff1673ffffffffffffffffffffffffffffffffffffffff1663a9059cbb33836040518363ffffffff1660e01b815260040161068292919061166a565b6020604051808303816000875af11580156106a1573d6000803e3d6000fd5b505050506040513d601f19601f820116820180604052508101906106c591906115d1565b610704576040517f08c379a00000000000000000000000000000000000000000000000000000000081526004016106fb906116df565b60405180910390fd5b81600460008282546107169190611420565b92505081905550806003600082825461072f91906116ff565b92505081905550600015153373ffffffffffffffffffffffffffffffffffffffff167f5aa8e665a6e1c6a7d2c5b99a4189b04b54f8c24e567a02d8fb7d4a63f57e8d6b8484604051610782929190611733565b60405180910390a35050565b60008060009054906101000a900473ffffffffffffffffffffffffffffffffffffffff16905090565b6107bf610f61565b600160009054906101000a900473ffffffffffffffffffffffffffffffffffffffff1673ffffffffffffffffffffffffffffffffffffffff166323b872dd3330856040518463ffffffff1660e01b815260040161081e93929190611562565b6020604051808303816000875af115801561083d573d6000803e3d6000fd5b505050506040513d601f19601f8201168201806040525081019061086191906115d1565b6108a0576040517f08c379a0000000000000000000000000000000000000000000000000000000008152600401610897906116df565b60405180910390fd5b600260009054906101000a900473ffffffffffffffffffffffffffffffffffffffff1673ffffffffffffffffffffffffffffffffffffffff166323b872dd3330846040518463ffffffff1660e01b81526004016108ff93929190611562565b6020604051808303816000875af115801561091e573d6000803e3d6000fd5b505050506040513d601f19601f8201168201806040525081019061094291906115d1565b610981576040517f08c379a00000000000000000000000000000000000000000000000000000000081526004016109789061164a565b60405180910390fd5b81600360008282546109939190611420565b9250508190555080600460008282546109ac9190611420565b925050819055507f38f8a0c92f4c5b0b6877f878cb4c0c8d348a47b76d716c8e78f425043df9515b82826040516109e4929190611733565b60405180910390a15050565b6109f8610f61565b8160035410158015610a0c57508060045410155b610a4b576040517f08c379a0000000000000000000000000000000000000000000000000000000008152600401610a42906117a8565b60405180910390fd5b8160036000828254610a5d91906116ff565b925050819055508060046000828254610a7691906116ff565b92505081905550600160009054906101000a900473ffffffffffffffffffffffffffffffffffffffff1673ffffffffffffffffffffffffffffffffffffffff1663a9059cbb33846040518363ffffffff1660e01b8152600401610ada92919061166a565b6020604051808303816000875af1158015610af9573d6000803e3d6000fd5b505050506040513d601f19601f82011682018060405250810190610b1d91906115d1565b610b5c576040517f08c379a0000000000000000000000000000000000000000000000000000000008152600401610b53906116df565b60405180910390fd5b600260009054906101000a900473ffffffffffffffffffffffffffffffffffffffff1673ffffffffffffffffffffffffffffffffffffffff1663a9059cbb33836040518363ffffffff1660e01b8152600401610bb992919061166a565b6020604051808303816000875af1158015610bd8573d6000803e3d6000fd5b505050506040513d601f19601f82011682018060405250810190610bfc91906115d1565b610c3b576040517f08c379a0000000000000000000000000000000000000000000000000000000008152600401610c329061164a565b60405180910390fd5b7f6f0f96292ae0038c04f9b6bab30f185d9ca02c471d0983f563f2a4f674aef1378282604051610c6c929190611733565b60405180910390a15050565b60035481565b6000610c8f82600354600454610260565b9050600160009054906101000a900473ffffffffffffffffffffffffffffffffffffffff1673ffffffffffffffffffffffffffffffffffffffff166323b872dd3330856040518463ffffffff1660e01b8152600401610cf093929190611562565b6020604051808303816000875af1158015610d0f573d6000803e3d6000fd5b505050506040513d601f19601f82011682018060405250810190610d3391906115d1565b610d72576040517f08c379a0000000000000000000000000000000000000000000000000000000008152600401610d69906116df565b60405180910390fd5b600260009054906101000a900473ffffffffffffffffffffffffffffffffffffffff1673ffffffffffffffffffffffffffffffffffffffff1663a9059cbb33836040518363ffffffff1660e01b8152600401610dcf92919061166a565b6020604051808303816000875af1158015610dee573d6000803e3d6000fd5b505050506040513d601f19601f82011682018060405250810190610e1291906115d1565b610e51576040517f08c379a0000000000000000000000000000000000000000000000000000000008152600401610e489061164a565b60405180910390fd5b8160036000828254610e639190611420565b925050819055508060046000828254610e7c91906116ff565b92505081905550600115153373ffffffffffffffffffffffffffffffffffffffff167f5aa8e665a6e1c6a7d2c5b99a4189b04b54f8c24e567a02d8fb7d4a63f57e8d6b8484604051610ecf929190611733565b60405180910390a35050565b610ee3610f61565b600073ffffffffffffffffffffffffffffffffffffffff168173ffffffffffffffffffffffffffffffffffffffff1603610f555760006040517f1e4fbdf7000000000000000000000000000000000000000000000000000000008152600401610f4c91906112ad565b60405180910390fd5b610f5e81610fe8565b50565b610f696110ac565b73ffffffffffffffffffffffffffffffffffffffff16610f8761078e565b73ffffffffffffffffffffffffffffffffffffffff1614610fe657610faa6110ac565b6040517f118cdaa7000000000000000000000000000000000000000000000000000000008152600401610fdd91906112ad565b60405180910390fd5b565b60008060009054906101000a900473ffffffffffffffffffffffffffffffffffffffff169050816000806101000a81548173ffffffffffffffffffffffffffffffffffffffff021916908373ffffffffffffffffffffffffffffffffffffffff1602179055508173ffffffffffffffffffffffffffffffffffffffff168173ffffffffffffffffffffffffffffffffffffffff167f8be0079c531659141344cd1fd0a4f28419497f9722a3daafe3b4186f6b6457e060405160405180910390a35050565b600033905090565b600080fd5b6000819050919050565b6110cc816110b9565b81146110d757600080fd5b50565b6000813590506110e9816110c3565b92915050565b600080600060608486031215611108576111076110b4565b5b6000611116868287016110da565b9350506020611127868287016110da565b9250506040611138868287016110da565b9150509250925092565b61114b816110b9565b82525050565b60006020820190506111666000830184611142565b92915050565b600073ffffffffffffffffffffffffffffffffffffffff82169050919050565b6000819050919050565b60006111b16111ac6111a78461116c565b61118c565b61116c565b9050919050565b60006111c382611196565b9050919050565b60006111d5826111b8565b9050919050565b6111e5816111ca565b82525050565b600060208201905061120060008301846111dc565b92915050565b60006112118261116c565b9050919050565b61122181611206565b811461122c57600080fd5b50565b60008135905061123e81611218565b92915050565b60006020828403121561125a576112596110b4565b5b60006112688482850161122f565b91505092915050565b600060208284031215611287576112866110b4565b5b6000611295848285016110da565b91505092915050565b6112a781611206565b82525050565b60006020820190506112c2600083018461129e565b92915050565b600080604083850312156112df576112de6110b4565b5b60006112ed858286016110da565b92505060206112fe858286016110da565b9150509250929050565b600082825260208201905092915050565b7f416d6f756e7420696e206d7573742062652067726561746572207468616e2030600082015250565b600061134f602083611308565b915061135a82611319565b602082019050919050565b6000602082019050818103600083015261137e81611342565b9050919050565b7f5265736572766573206d7573742062652067726561746572207468616e203000600082015250565b60006113bb601f83611308565b91506113c682611385565b602082019050919050565b600060208201905081810360008301526113ea816113ae565b9050919050565b7f4e487b7100000000000000000000000000000000000000000000000000000000600052601160045260246000fd5b600061142b826110b9565b9150611436836110b9565b925082820190508082111561144e5761144d6113f1565b5b92915050565b600061145f826110b9565b915061146a836110b9565b9250828202611478816110b9565b9150828204841483151761148f5761148e6113f1565b5b5092915050565b7f4e487b7100000000000000000000000000000000000000000000000000000000600052601260045260246000fd5b60006114d0826110b9565b91506114db836110b9565b9250826114eb576114ea611496565b5b828204905092915050565b7f496e76616c696420746f6b656e00000000000000000000000000000000000000600082015250565b600061152c600d83611308565b9150611537826114f6565b602082019050919050565b6000602082019050818103600083015261155b8161151f565b9050919050565b6000606082019050611577600083018661129e565b611584602083018561129e565b6115916040830184611142565b949350505050565b60008115159050919050565b6115ae81611599565b81146115b957600080fd5b50565b6000815190506115cb816115a5565b92915050565b6000602082840312156115e7576115e66110b4565b5b60006115f5848285016115bc565b91505092915050565b7f5472616e73666572206f6620546f6b656e42206661696c656400000000000000600082015250565b6000611634601983611308565b915061163f826115fe565b602082019050919050565b6000602082019050818103600083015261166381611627565b9050919050565b600060408201905061167f600083018561129e565b61168c6020830184611142565b9392505050565b7f5472616e73666572206f6620546f6b656e41206661696c656400000000000000600082015250565b60006116c9601983611308565b91506116d482611693565b602082019050919050565b600060208201905081810360008301526116f8816116bc565b9050919050565b600061170a826110b9565b9150611715836110b9565b925082820390508181111561172d5761172c6113f1565b5b92915050565b60006040820190506117486000830185611142565b6117556020830184611142565b9392505050565b7f496e73756666696369656e74206c697175696469747900000000000000000000600082015250565b6000611792601683611308565b915061179d8261175c565b602082019050919050565b600060208201905081810360008301526117c181611785565b905091905056fea26469706673582212206c1923242ccb7a5b09375d4bddbe577357ba57423b1a5f5f4fbb009114039e1664736f6c63430008180033",
  "linkReferences": {},
  "deployedLinkReferences": {}
}